:020000001028C6
:10000800FE00030EF6000408F7000A08F800831241
:1000180003137F08F900BE2A1128FB01DB01DC016C
:10002800DD01DE01DF01E001E101E201E30183011D
:100038001D2810238D22D32214220030831203138B
:10004800A2000030A300A82283120313A600A70170
:100058002608C9002708CA0049081C234130831212
:100068000313A700EE30A600A60B3828A70B3828E4
:1000780000002D3083120313A2000030A300A82231
:1000880083120313A600A7012608CB002708CC007B
:100098004B081C23413083120313A700EE30A6003F
:1000A800A60B5428A70B542800002C3083120313E6
:1000B800A2000030A300A82283120313A600A70100
:1000C8002608CD002708CE004D081C2300308312D7
:1000D8000313DA000030D9000030D8000030D70010
:1000E8005A08D6005908D5005808D4005708D30034
:1000F8005608D2005508D1005408D0005308CF0044
:100108004F23A6302823323028235523A73028230D
:10011800E62283120313A600A701A801A901290852
:10012800B8002808B7002708B6002608B5003B2302
:10013800E62283120313A600A701A801A901290832
:10014800B4002808B3002708B2002608B1003B23F2
:10015800E62283120313A600A701A801A901290812
:10016800C0002808BF002708BE002608BD003B23A2
:10017800E62283120313A600A701A801A9012908F2
:10018800BC002808BB002708BA002608B9003B2392
:10019800E62283120313A600A701A801A9012908D2
:1001A800C8002808C7002708C6002608C5003B2342
:1001B800E62283120313A600A701A801A9012908B2
:1001C800C4002808C3002708C2002608C10042232B
:1001D8004923831203133508A6003608A7003708F9
:1001E800A8003808A9003108AA003208AB00330873
:1001F800AC003408AD0008300310AA0DAB0DAC0DEF
:10020800AD0DFF3E031D00292A08A6042B08A704EC
:100218002C08A8042D08A9042608CF0727080311CD
:100228000318013E031DD007280803110318013ED7
:10023800031DD107290803110318013E031DD20726
:100248003D08A6003E08A7003F08A8004008A900EE
:100258003908AA003A08AB003B08AC003C08AD00DE
:1002680008300310AA0DAB0DAC0DAD0DFF3E031DFC
:1002780035292A08A6042B08A7042C08A8042D0849
:10028800A9042608D307270803110318013E031DF4
:10029800D407280803110318013E031DD5072908B0
:1002A80003110318013E031DD6074508A60046089A
:1002B800A7004708A8004808A9004108AA00420862
:1002C800AB004308AC004408AD0008300310AA0D89
:1002D800AB0DAC0DAD0DFF3E031D6A292A08A6041F
:1002E8002B08A7042C08A8042D08A9042608D7075A
:1002F800270803110318013E031DD8072808031116
:100308000318013E031DD907290803110318013EEC
:10031800031DDA075208A3005108A2005008A100E3
:100328004F08A0005F23831203132008A6002608A5
:10033800AE005608A3005508A2005408A1005308AF
:10034800A0005E23831203132008A6002608AF002E
:100358005A08A3005908A2005808A1005708A0008D
:100368005D23831203132008A6002608B0004F0857
:10037800A6005008A7005108A8005208A900083094
:10038800AA00290DA90CA80CA70CA60CAA0BC52914
:100398002608AB002B08DF004F08A6002608DE0061
:1003A8005308A6005408A7005508A8005608A90035
:1003B8000830AA00290DA90CA80CA70CA60CAA0B9A
:1003C800DE292608AB002B08E1005308A600260802
:1003D800E0005708A6005808A7005908A8005A08BE
:1003E800A9000830AA00290DA90CA80CA70CA60C76
:1003F800AA0BF7292608AB002B08E3005708A6002C
:100408002608E2006630A6002608DD00DB175B0838
:1004180080393538DB005C0800393038DC006A2860
:10042800383083120313A1000030A2009F30A400CB
:100438002408A300F622413083120313A500EE30EE
:10044800A400A40B252AA50B252A0000313083120D
:100458000313A1000030A2000930A4002408A3005F
:10046800F622413083120313A500EE30A400A40B3A
:100478003B2AA50B3B2A00002C3083120313A10052
:100488000030A2000D30A4002408A300F622413059
:1004980083120313A500EE30A400A40B512AA50B68
:1004A800512A00002D3083120313A1000030A2004E
:1004B8000830A4002408A300F6220800F300F40181
:1004C800F501F401F50171087502031D6D2A700824
:1004D80074020318892A831203130C1E6F2A7408E6
:1004E8007307F20072088400831300089900013032
:1004F800F4070318F50A0030F50771087502031DA3
:10050800872A70087402031C6F2A831203130C12C3
:1005180008008316031318111F309900181283124C
:1005280003139817831603130717871798168C1643
:100538000B178B178312031318165B2383120313ED
:10054800A0002008FA0008004F23A63028238312B1
:100558000313220828235523A7302823E6228312D1
:100568000313A4002408A50042234923831203137C
:10057800250808008C1EC82A8B1303238B178312A7
:1005880003138C12013087067908FF0078088A0067
:1005980077088400760E8300FE0E7E0E090083160F
:1005A8000313871507169417283083120313940032
:1005B80083160313910131309300831203138C11B6
:1005C8008D110800831603139115141CE92A831250
:1005D80003131308A0002008A10033238312031378
:1005E800210808004F23A63028238312031321086B
:1005F800282383120313230828234923080083127E
:1006080003131A087A06031D08000930F0000030A9
:10061800F1005B3062220800831603130710FF30D5
:100628008500831203139F018316031788010800AE
:1006380083120313A00083160313981C1F2B831225
:10064800031320089900080083120313A000200850
:1006580093008316031314182D2B332308008316D5
:10066800031311081F3903191419332B08008316B3
:10067800031391121116111E08003F2B8316031342
:1006880091161116111E0800462B83160313111517
:10069800111D08004C2B831603131114111C08009C
:1006A800522B831603139114911C0800582B3530D4
:0806B80008000800080008001A
:04400E00D2E0FFFFFE
:00000001FF
