:020000001028C6
:10000800FE00030EF6000408F7000A08F800831241
:1000180003137F08F9007E281128FB01A001A10124
:10002800A201A301A401A50183014528F300F4015D
:10003800F501F401F50171087502031D2528700802
:10004800740203184128831203130C1E272874080E
:100058007307F200720884008313000899000130C6
:10006800F4070318F50A0030F50771087502031D37
:100078003F2870087402031C2728831203130C12EC
:100088000800A0206320553083120313A700270817
:10009800A300AA30A7002708A4008830A7002708D3
:1000A800A5006630A7002708A200A01720088039FD
:1000B8003538A0003030A7002708A100472883164C
:1000C800031318111F30990018128312031398177D
:1000D800831603130717871798168C160B178B1799
:1000E800831203131816AC2083120313A6002608E4
:1000F800FA0008008C1E88288B1393208B17831214
:1001080003138C12013087067908FF0078088A00EB
:1001180077088400760E8300FE0E7E0E0900831297
:1001280003131A087A06031D08000630F000003091
:10013800F10020301A200800831603130710FF303F
:100148008500831203139F01831603178801080093
:040158003530080036
:04400E00D2E0FFFFFE
:00000001FF
