:020000001028C6
:10000800FE00030EF6000408F7000A08F800831241
:1000180003137F08F9003A2B1128FB01E601E701D9
:10002800E801E901EA01EB01EC0183011B288C23BB
:1000380009234F239322831203136608AF00B001EC
:100048002F08A2003008A300242383120313B10051
:10005800B2013108B7003208B800413083120313E7
:10006800B000EE30AF00AF0B3728B00B37282D307B
:1000780083120313A2000030A30024238312031366
:10008800AF00B0012F08B9003008BA004130831220
:100098000313B000EE30AF00AF0B5028B00B502860
:1000A8002C3083120313A2000030A30024238312F0
:1000B8000313AF00B0012F08BB003008BC000030AC
:1000C800E0000030DF000030DE000030DD006008B6
:1000D800DC005F08DB005E08DA005D08D9005C0818
:1000E800D8005B08D7005A08D6005908D500E401A3
:1000F800E5016508803AFF0080307F02031D8628ED
:10010800103064020318A329C023A6309823323084
:100118009823C623A7309823622383120313AF00C2
:10012800B001B101B2013208C4003108C30030087F
:10013800C2002F08C100AC23622383120313AF004F
:10014800B001B101B2013208C0003108BF00300867
:10015800BE002F08BD00AC23622383120313AF0037
:10016800B001B101B2013208CC003108CB0030082F
:10017800CA002F08C900AC23622383120313AF00FF
:10018800B001B101B2013208C8003108C700300817
:10019800C6002F08C500AC23622383120313AF00E7
:1001A800B001B101B2013208D4003108D3003008DF
:1001B800D2002F08D100AC23622383120313AF00AF
:1001C800B001B101B2013208D0003108CF003008C7
:1001D800CE002F08CD00B323BA238312031341089E
:1001E800AF004208B0004308B1004408B2003D081F
:1001F800B3003E08B4003F08B5004008B600083018
:100208000310B30DB40DB50DB60DFF3E031D042943
:100218003308AF043408B0043508B1043608B20412
:100228002F08D507300803110318013E031DD60710
:10023800310803110318013E031DD70732080311C3
:100248000318013E031DD8074908AF004A08B0004B
:100258004B08B1004C08B2004508B3004608B4008A
:100268004708B5004808B60008300310B30DB40DB0
:10027800B50DB60DFF3E031D39293308AF04340808
:10028800B0043508B1043608B2042F08D90730087D
:1002980003110318013E031DDA073108031103187F
:1002A800013E031DDB07320803110318013E031D3D
:1002B800DC075108AF005208B0005308B1005408D9
:1002C800B2004D08B3004E08B4004F08B5005008FE
:1002D800B60008300310B30DB40DB50DB60DFF3ED2
:1002E800031D6E293308AF043408B0043508B1047F
:1002F8003608B2042F08DD07300803110318013E41
:10030800031DDE07310803110318013E031DDF0733
:10031800320803110318013E031DE0070130E4070A
:100328000318E50A0030E5076508803AFF008030C9
:100338007F02031DA12910306402031C88280030A5
:1003480083120313A3000030A2000030A100103074
:10035800A0005808A7005708A6005608A500550889
:10036800A4000422831203132008AF002F08E10021
:100378000030A3000030A2000030A1001030A0001F
:100388005C08A7005B08A6005A08A5005908A40045
:100398000422831203132008AF002F08E200003064
:1003A800A3000030A2000030A1001030A0006008B7
:1003B800A7005F08A6005E08A5005D08A400042247
:1003C800831203132008AF002F08E3006108AF0071
:1003D8002F08EA006208AF002F08EB006308AF009F
:1003E8002F08EC006630AF002F08E900E717670810
:1003F80080393538E7003030AF002F08E80063282F
:1004080083120313AA01A31F162AA009A109A2098E
:10041800A309A00A0319A10A0319A20A0319A30A26
:10042800AA01AA0AA71F272AA409A509A609A70994
:10043800A40A0319A50A0319A60A0319A70A013071
:10044800A8002808AA060030AE000030AD00003031
:10045800AC000030AB002308220421042004031957
:100468007C2AA901A90AA31B472A0130A800031066
:10047800A00DA10DA20DA30DA80B3B2A0130A800C9
:100488002808A907372A0130A8000310AB0DAC0DC6
:10049800AD0DAE0DA80B492A23082702031D5E2ABD
:1004A80022082602031D5E2A21082502031D5E2A52
:1004B80020082402031C6F2A2008A4022108031C18
:1004C800210FA5022208031C220FA6022308031CE1
:1004D800230FA7022B1401300310A30CA20CA10CAC
:1004E800A00CFF3E031D702A0130A902031D472AF4
:1004F8002A0803198A2AAB09AC09AD09AE09AB0A67
:100508000319AC0A0319AD0A0319AE0A2E08A30091
:100518002D08A2002C08A1002B08A00008003830E4
:1005280083120313A1000030A2009F30A400240806
:10053800A3007223413083120313A500EE30A400F8
:10054800A40BA42AA50BA42A313083120313A100FB
:100558000030A2000930A4002408A300722341300F
:1005680083120313A500EE30A400A40BB92AA50B2F
:10057800B92A2C3083120313A1000030A2000D30D9
:10058800A4002408A3007223413083120313A5009A
:10059800EE30A400A40BCE2AA50BCE2A2D30831250
:1005A8000313A1000030A2000830A4002408A3000F
:1005B80072230800F300F401F501F401F501710854
:1005C8007502031DE92A700874020318052B8312AB
:1005D80003130C1EEB2A74087307F20072088400D8
:1005E8008313000899000130F4070318F50A003056
:1005F800F50771087502031D032B70087402031CAC
:10060800EB2A831203130C12080083160313181124
:100618001F309900181283120313981783160313B7
:100628000717871798168C160B178B178312031347
:100638001816CC2383120313A0002008FA00080020
:10064800C023A63098238312031322089823C623B5
:10065800A7309823622383120313A4002408A5005B
:10066800B323BA2383120313250808008C1E442BD6
:100678008B137F238B17831203138C120130870689
:100688007908FF0078088A0077088400760E8300CE
:10069800FE0E7E0E0900831603138715071694179E
:1006A8002830831203139400831603139101313009
:1006B8009300831203138C118D1108008316031302
:1006C8009115141C652B831203131308A00020082E
:1006D800A100A3238312031321080800C023A63016
:1006E80098238312031321089823831203132308E2
:1006F8009823BA230800831203131A087A06031DE5
:1007080008000630F0000030F1006730DE220800F3
:10071800831603130710FF308500831203139F010C
:10072800831603178801080083120313A00020080A
:1007380093008316031314189D2BA3230800831614
:10074800031311081F39031DA32B141D0800A32B25
:100758008316031391121116111E0800B02B83166D
:10076800031391161116111E0800B72B83160313D5
:100778001115111D0800BD2B831603131114111C2C
:100788000800C32B831603139114911C0800C92B6E
:0407980035300800F0
:04400E00D2E0FFFFFE
:00000001FF
